:020000040800F2
:10000000B0050020450100084D0100084F0100081F
:1000100051010008530100085501000800000000CC
:100020000000000000000000000000005701000870
:1000300059010008000000005B0100085D01000894
:100040005F0100085F0100085F0100085F01000810
:100050005F0100085F0100085F0100085F01000800
:100060005F0100085F0100085F0100085F010008F0
:100070005F0100085F0100085F0100085F010008E0
:100080005F0100085F0100085F0100085F010008D0
:100090005F0100085F0100085F0100085F010008C0
:1000A0005F0100085F0100085F0100085F010008B0
:1000B0005F0100085F0100085F0100085F010008A0
:1000C0005F0100085F0100085F0100085F01000890
:1000D0005F0100085F0100085F0100085F01000880
:1000E0005F0100085F0100085F0100085F01000870
:1000F0005F0100085F0100085F0100085F01000860
:100100005F0100085F0100085F0100085F0100084F
:100110005F0100085F0100085F0100085F0100083F
:100120005F0100085F0100085F0100085F0100082F
:10013000DFF80CD000F018F8004800475D0A00080E
:10014000B00500200648804706480047FEE7FEE766
:10015000FEE7FEE7FEE7FEE7FEE7FEE7FEE7FEE777
:10016000B905000831010008064C074D06E0E068BB
:1001700040F0010394E8070098471034AC42F6D3EE
:10018000FFF7DAFF980A0008B80A000870B58C1863
:1001900010F8015B15F0070301D110F8013B2A119B
:1001A00006D110F8012B03E010F8016B01F8016B88
:1001B0005B1EF9D12B0705D40023521E0DD401F884
:1001C000013BFAE710F8013BCB1A921C03E013F84D
:1001D000015B01F8015B521EF9D5A142D8D3002082
:1001E00070BD00001148D0F8A411B1B15FF000015A
:1001F000C0F8A411D0F8A01189B10021C0F8A01155
:10020000D0F89C1169B10021C0F89C11D0F8981168
:1002100049B10021C0F8981170470121E8E7012198
:10022000ECE70121F0E70121F4E7000000002242A1
:1002300008B50121102000F095F84FF47070ADF86A
:10024000000010208DF8030003208DF8020069469D
:10025000014800F003F808BD00100140F0B5CA786D
:10026000002502F00F03D20601D58A7813430A78DD
:100270004FF00F0E12F0FF0F4FF001021CD0046878
:100280000F8802FA05F63740B74211D14FEA850CC4
:100290000EFA0CF724EA070703FA0CF43C43CF7874
:1002A000282F02D0482F02D002E0466100E006610C
:1002B0006D1C082DE4D304600C88FF2C1ED9446803
:1002C0005FF0000606F1080702FA07F50F882F40D5
:1002D000AF420FD14FEA860C0EFA0CF7BC4303FA7B
:1002E0000CF73C43CF78282F00D14561CF78482FB9
:1002F00000D10561761C082EE4D34460F0BD0000F7
:100300000249084302490860704700000000FA05EE
:100310000CED00E010B5044601464FF0804000F0BF
:100320007DF92146064800F079F92146054800F09C
:1003300075F92146BDE81040034800F06FB9000090
:100340000004004000080040000C0040044A00295E
:10035000D16901D0014300E08143D16170470000C1
:1003600000100240044A0029916901D0014300E0D5
:100370008143916170470000001002400CB50021DC
:10038000264801910091026842F4803202604FF4E5
:10039000A063026802F400320092019A521C01929A
:1003A000009A12B9019A9A42F3D10268920333D5A6
:1003B000012100911A490A6842F010020A600A6895
:1003C00022F003020A600A6842F002020A604168F1
:1003D000416041684160416841F480614160416829
:1003E00021F47C114160416841F4E81141600168E9
:1003F00041F08071016001688901FCD5416821F0FC
:1004000003014160416841F0020141604168C1F36C
:1004100081010229FAD10CBD00910CBD00100240EF
:10042000002002402DE9F05F294CC820251DDFF88F
:10043000A480DFF8A490DFF8A4B04FF6FF7AC706D7
:100440002060288800F0F0FA2068564635F8100041
:100450000AEA8001384600F04DFA206835F81000AD
:1004600006EA8001404600F045FA206835F81000A1
:1004700006EA8001484600F03DFA206835F8100091
:1004800006EA80015E46584600F034FA206835F8E6
:1004900010004108384600F02FFA206835F81000A7
:1004A0004108404600F028FA206835F8100041085D
:1004B000484600F021FA206835F81000410830461F
:1004C00000F01AFA2068401E2060BAD5BDE8F09FFF
:1004D000000000200004004000080040000C004024
:1004E0002DE9F05F2A4C0020DFF8A880DFF8A89003
:1004F000DFF8A8B0251D4FF6FF7A4FF08047206047
:10050000288800F091FA2068564635F810000AEA6B
:100510008001384600F0EEF9206835F8100006EA50
:100520008001404600F0E6F9206835F8100006EA40
:100530008001484600F0DEF9206835F8100006EA30
:1005400080015E46584600F0D5F9206835F8100065
:100550004108384600F0D0F9206835F8100041080D
:10056000404600F0C9F9206835F8100041084846B7
:1005700000F0C2F9206835F810004108304600F05C
:10058000BBF92068401C2060C928B9DBBDE8F09F9A
:10059000000000200004004000080040000C004063
:1005A0004FF0E0210428086903D020F0040008611E
:1005B000704740F00400FAE70F4810B5016841F0B9
:1005C0000101016041680D4A1140416001680C4A17
:1005D00011400160016821F480210160416821F42B
:1005E000FE0141604FF41F018160FFF7C7FE05491E
:1005F0004FF00060086010BD001002400000FFF8DE
:10060000FFFFF6FE08ED00E00029018802D041F06E
:10061000800101E021F080010180704700290188FC
:1006200002D041F0010101E021F001010180704799
:100630002DE9F04788B001210C20FFF793FE4320FD
:10064000ADF8000018248DF8034003258DF8025002
:1006500069466048FFF702FE4020ADF800008DF8C3
:1006600003408DF8025069465B48FFF7F7FD012112
:100670000846FFF76BFE00244FF47A75ADF814506E
:10068000ADF810404FF0804AADF81640ADF812407A
:1006900004A9504600F032F97026ADF80060012739
:1006A0004FF0C8084FF00209ADF80270ADF80680AF
:1006B000ADF808906946504600F096F8082150467B
:1006C00000F0D2F801215046FFF79EFF002150466E
:1006D000FFF7A4FF01210220FFF738FEDFF8FCA09E
:1006E000ADF81450ADF81040ADF81640ADF812401A
:1006F00004A9504600F002F9ADF80060ADF80270B0
:10070000ADF80680ADF808906946504600F06CF8E8
:100710000821504600F0A8F801215046FFF774FF69
:1007200000215046FFF77AFF01210420FFF70EFE5B
:10073000DFF8ACA0ADF81450ADF81040ADF816409D
:10074000ADF8124004A9504600F0D8F8ADF80060AA
:10075000ADF80270ADF80680ADF8089069465046D5
:1007600000F042F80821504600F07EF80121504682
:10077000FFF74AFF00215046FFF750FF01210820F4
:10078000FFF7E4FDADF81450ADF81040ADF8164099
:10079000ADF81240134C04A9204600F0AFF8ADF8B4
:1007A0000060ADF80270ADF80680ADF808906946BB
:1007B000204600F05FF80821204600F055F801219E
:1007C0002046FFF721FF00212046FFF727FF08B052
:1007D000BDE8F08700080140000C01400004004023
:1007E00000080040000C004030B5028C22F00102ED
:1007F0000284028C8388048B22F0020224F07305A9
:100800000C882C430D8915434A882A43114DA84270
:100810000BD0114DA84208D0104DA84205D0104D64
:10082000A84202D00F4DA8420DD122F008054A89F6
:1008300023F440732A4322F004058A882A438D89D1
:100840001D43CB892B4383800483C988818602841E
:1008500030BD0000002C0140003401400040014048
:100860000044014000480140028B22F008020A4384
:100870000283704770B5028C22F010020284028C51
:100880008488038B0D8823F4E6464FF6FF7303EA52
:10089000052535430E8922F0200203EA0616164389
:1008A0004A8803EA02123243104EB04202D0104E80
:1008B000B04215D122F080064A8924F4406403EA4C
:1008C0000212324322F040068A8803EA02123243BF
:1008D0008E8903EA86062643CC8903EA84043443DE
:1008E00084800583C9880187028470BD002C014083
:1008F00000340140818570478186704730B5028899
:100900001B4B1C4C98420DD0A0420BD0B0F1804F35
:1009100008D0194DA84205D0184DA84202D0184D54
:10092000A84203D122F070054A882A43154DA842F7
:1009300006D0154DA84203D022F44075CA882A4338
:1009400002808A8882850A88028598420AD0A0425D
:1009500008D00E4A904205D00D4A904202D00D4A6E
:10096000904201D1097A01860121818230BD0000C7
:10097000002C014000340140000400400008004009
:10098000000C0040001000400014004000400140F6
:10099000004401400048014002E008C8121F08C19D
:1009A000002AFAD170477047002001E001C1121FF0
:1009B000002AFBD17047000010B56FF00400FFF76C
:1009C000EFFD094809490068B0FBF1F0C1B20848E1
:1009D00001EB41020170C2EBC1114FF6FF7202EA56
:1009E000C101418010BD00009C01002000127A006E
:1009F000960100200B49498848434FF0E0214861A7
:100A000000228A61086940F0010008610869C30793
:100A100001D0C003FAD5086920F0010008618A619D
:100A200070470000960100200B49097848434FF0B9
:100A3000E021486100228A61086940F001000861F4
:100A40000869C30701D0C003FAD5086920F0010086
:100A500008618A617047000096010020FFF7ACFF33
:100A60004FF4C060FFF74CFCFFF7E2FBFFF7E0FD3F
:100A70000120FFF74FFC41F2883400BFFFF730FD43
:100A80002046FFF7B7FFFFF7CDFC0A20FFF7B2FFC4
:100A9000FFF7A8FBF2E70000B80A000800000020FA
:100AA000B00100008C010008FC0B0008B001002020
:100AB00000040000A809000841AB540202BA520227
:100AC0007A50025A4E023A4C023A4A023A48021A04
:100AD00046021A44021A42021A40021A3E021C3C02
:100AE000023A02180A380236023402320230021088
:100AF0007C2E022C02280226022402220220021E40
:100B0000021A021802140212020E020C0208020457
:100B1000020202FE01FA01F601F201EE01E801E42F
:100B200001E001DC01D601D201CC01C601C201BC49
:100B300001B601B001AA01A4019E01980192018CA5
:100B40000186018001780172016C0164015E015827
:100B50000150014A0144013C0136013001280122C3
:100B6000011C0114010E0108010201FC12F612F031
:100B700012EA12E412DE12D812D212CE12C812C237
:100B800012BE12B812B412B012AC12A612A2129E69
:100B9000129A129612921290128C12881286128257
:100BA0001280127C127A1276127412721270126E05
:100BB000126C126812661A640212621260125E12DD
:100BC0005C1A5A0212581A56021A54021A52021A7F
:100BD00050021A4E023A4C023A4A023A48025A4627
:100BE000027A4402BA4202BA40027184A24A040064
:0C0BF000090001020304060708090000C8
:0400000508000131BD
:00000001FF
