:020000040800F2
:1000000038040020450100084D0100084F01000898
:1000100051010008530100085501000800000000CC
:100020000000000000000000000000005701000870
:1000300059010008000000005B0100085D01000894
:100040005F0100085F0100085F0100085F01000810
:100050005F0100085F0100085F0100085F01000800
:100060005F0100085F0100085F0100085F010008F0
:100070005F0100085F0100085F0100085F010008E0
:100080005F0100085F0100085F0100085F010008D0
:100090005F0100085F0100085F0100085F010008C0
:1000A0005F0100085F0100085F0100085F010008B0
:1000B0005F0100085F0100085F0100085F010008A0
:1000C0005F0100085F0100085F0100085F01000890
:1000D0005F0100085F0100085F0100085F01000880
:1000E0005F0100085F0100085F0100085F01000870
:1000F0005F0100085F0100085F0100085F01000860
:100100005F0100085F0100085F0100085F0100084F
:100110005F0100085F0100085F0100085F0100083F
:100120005F0100085F0100085F0100085F0100082F
:10013000DFF80CD000F018F800480047B5080008B8
:10014000380400200648804706480047FEE7FEE7DF
:10015000FEE7FEE7FEE7FEE7FEE7FEE7FEE7FEE777
:100160000D04000831010008064C074D06E0E06868
:1001700040F0010394E8070098471034AC42F6D3EE
:10018000FFF7DAFFB8090008D809000808B501210F
:10019000502000F0CFF84FF47070ADF80000102040
:1001A0008DF8030003208DF802006946074800F02F
:1001B00011F84FF46070ADF8000048208DF803008E
:1001C0006946034800F006F808BD00000010014031
:1001D00000180140F0B5CA78002502F00F03D206DE
:1001E00001D58A7813430A784FF00F0E12F0FF0FF3
:1001F0004FF001021CD004680F8802FA05F6374060
:10020000B74211D14FEA850C0EFA0CF724EA070722
:1002100003FA0CF43C43CF78282F02D0482F02D0A9
:1002200002E0466100E006616D1C082DE4D3046025
:100230000C88FF2C1ED944685FF0000606F1080701
:1002400002FA07F50F882F40AF420FD14FEA860C14
:100250000EFA0CF7BC4303FA0CF73C43CF78282F77
:1002600000D14561CF78482F00D10561761C082E5A
:10027000E4D34460F0BD0000084800680849074A1C
:10028000121D08601268054B4A6008331B688B60BA
:10029000044910401840086070470000E8F7FF1F4D
:1002A000280000200C00002005484FF08041008805
:1002B00088850449088004490880044908807047FB
:1002C000040000202C0400402C0800402C0C0040AE
:1002D0000249084302490860704700000000FA051F
:1002E0000CED00E010B5044601464FF0804000F0F0
:1002F000BFF82146064800F0BBF82146054800F04B
:10030000B7F82146BDE81040034800F0B1B800003E
:100310000004004000080040000C0040044A00298E
:10032000D16901D0014300E08143D16170470000F1
:1003300000100240044A0029916901D0014300E005
:100340008143916170470000001002400CB500210C
:10035000264801910091026842F4803202604FF415
:10036000A063026802F400320092019A521C0192CA
:10037000009A12B9019A9A42F3D10268920333D5D6
:10038000012100911A490A6842F010020A600A68C5
:1003900022F003020A600A6842F002020A60416821
:1003A000416041684160416841F480614160416859
:1003B00021F47C114160416841F4E8114160016819
:1003C00041F08071016001688901FCD5416821F02C
:1003D00003014160416841F0020141604168C1F39D
:1003E00081010229FAD10CBD00910CBD0010024020
:1003F000002002404FF0E0210428086903D020F0DB
:1004000004000861704740F00400FAE70F4810B597
:10041000016841F00101016041680D4A11404160ED
:1004200001680C4A11400160016821F480210160DB
:10043000416821F4FE0141604FF41F018160FFF724
:1004400085FF05494FF00060086010BD00100240B4
:100450000000FFF8FFFFF6FE08ED00E0002901882C
:1004600002D041F0800101E021F08001018070475D
:100470000029018802D041F0010101E021F00101D1
:10048000018070472DE9F04788B001210C20FFF76B
:1004900051FF4320ADF8000018248DF803400325D8
:1004A0008DF8025069466248FFF794FE4020ADF88F
:1004B00000008DF803408DF8025069465D48FFF753
:1004C00089FE01210846FFF729FF5B4D00244FF00C
:1004D000804A2888ADF81400ADF81040ADF81640F9
:1004E000ADF8124004A9504600F034F97026ADF87A
:1004F000006001274FF0C8084FF00209ADF8027004
:10050000ADF80680ADF808906946504600F09CF8BA
:100510000821504600F0D8F801215046FFF79EFF11
:1005200000215046FFF7A4FF01210220FFF7F6FE4D
:100530002888ADF81400DFF804A1ADF81040ADF83C
:100540001640ADF8124004A9504600F003F9ADF88A
:100550000060ADF80270ADF80680ADF8089069460D
:10056000504600F071F80821504600F0ADF8012126
:100570005046FFF773FF00215046FFF779FF012136
:100580000420FFF7CBFE2888ADF81400DFF8B0A0F8
:10059000ADF81040ADF81640ADF8124004A9504631
:1005A00000F0D8F8ADF80060ADF80270ADF8068044
:1005B000ADF808906946504600F046F808215046CC
:1005C00000F082F801215046FFF748FF0021504615
:1005D000FFF74EFF01210820FFF7A0FE2888ADF8A5
:1005E0001400ADF81040ADF81640ADF81240154CAF
:1005F00004A9204600F0AEF8ADF80060ADF8027036
:10060000ADF80680ADF808906946204600F062F823
:100610000821204600F058F801212046FFF71EFF70
:1006200000212046FFF724FF08B0BDE8F087000056
:1006300000080140000C01400400002000040040BC
:1006400000080040000C004030B5028C22F001028E
:100650000284028C8388048B22F0020224F073054A
:100660000C882C430D8915434A882A43114DA84212
:100670000BD0114DA84208D0104DA84205D0104D06
:10068000A84202D00F4DA8420DD122F008054A8998
:1006900023F440732A4322F004058A882A438D8973
:1006A0001D43CB892B4383800483C98881860284C0
:1006B00030BD0000002C01400034014000400140EA
:1006C0000044014000480140028B22F008020A4326
:1006D0000283704770B5028C22F010020284028CF3
:1006E0008488038B0D8823F4E6464FF6FF7303EAF4
:1006F000052535430E8922F0200203EA061616432B
:100700004A8803EA02123243104EB04202D0104E21
:10071000B04215D122F080064A8924F4406403EAED
:100720000212324322F040068A8803EA0212324360
:100730008E8903EA86062643CC8903EA840434437F
:1007400084800583C9880187028470BD002C014024
:100750000034014030B502881B4B1C4C98420DD030
:10076000A0420BD0B0F1804F08D0194DA84205D05F
:10077000184DA84202D0184DA84203D122F07005AE
:100780004A882A43154DA84206D0154DA84203D0E9
:1007900022F44075CA882A4302808A8882850A88A2
:1007A000028598420AD0A04208D00E4A904205D055
:1007B0000D4A904202D00D4A904201D1097A018639
:1007C0000121818230BD0000002C01400034014035
:1007D0000004004000080040000C004000100040F1
:1007E0000014004000400140004401400048014026
:1007F00002E008C8121F08C1002AFAD170477047EA
:10080000002001E001C1121F002AFBD17047000047
:1008100010B56FF00400FFF7EDFD094809490068C5
:10082000B0FBF1F0C1B2084801EB41020170C2EB2C
:10083000C1114FF6FF7202EAC101418010BD0000F4
:100840001400002000127A00100000200B49498893
:1008500048434FF0E021486100228A61086940F076
:10086000010008610869C30701D0C003FAD508690F
:1008700020F0010008618A6170470000100000202C
:100880000B49097848434FF0E021486100228A6112
:10089000086940F0010008610869C30701D0C0037E
:1008A000FAD5086920F0010008618A6170470000EC
:1008B00010000020FFF7E0FC3B483C4900250068A1
:1008C0003B4C884200D1257020780028FDD1FFF7ED
:1008D0009FFFFFF75BFC4FF4C060FFF7F9FCFFF7E9
:1008E000D1FDFFF7E1FCDFF8CC80012641F288372B
:1008F0000120FFF7F7FC15E0C820FFF7C1FFA08833
:10090000401E80B2A080E188884209D8A180FFF70C
:10091000CBFC607820B13846FFF798FF6570A67071
:10092000FFF7C2FC60780028E6D131E0C820FFF76D
:10093000A7FFA088401C80B2A0802189884225D3CF
:10094000A180FFF7B1FCA07800B30020FFF7CAFC3C
:100950003846FFF77BFFA5706670D8F8A4114046B3
:10096000D1B10021C0F8A411D0F8A011B1B100217B
:10097000C0F8A011D0F89C1191B10021C0F89C11D1
:10098000D0F8981171B10021C0F89811FFF78CFCD4
:10099000A0780028ACD0C9E70121E3E70121E7E70F
:1009A0000121EBE70121EFE70C00002000441000DB
:1009B0000000002000002242D809000800000020AA
:1009C00028000000F0070008000A000828000020A6
:1009D0001004000000080008010100008813F40161
:1009E00088130000000000000000000000A24A047C
:1009F00000000000000000000102030406070809CF
:0400000508000131BD
:00000001FF
